{
  "_format": "hh-sol-artifact-1",
  "contractName": "CudosAuraPool",
  "sourceName": "contracts/CudosAuraPool.sol",
  "abi": [
    {
      "inputs": [
        {
          "internalType": "contract CudosAccessControls",
          "name": "_cudosAccessControls",
          "type": "address"
        }
      ],
      "stateMutability": "payable",
      "type": "constructor"
    },
    {
      "anonymous": false,
      "inputs": [
        {
          "indexed": false,
          "internalType": "address",
          "name": "withdrawer",
          "type": "address"
        }
      ],
      "name": "FinishedPaymentsWithdrawn",
      "type": "event"
    },
    {
      "anonymous": false,
      "inputs": [
        {
          "indexed": false,
          "internalType": "bytes32",
          "name": "paymentId",
          "type": "bytes32"
        }
      ],
      "name": "MarkedAsFinished",
      "type": "event"
    },
    {
      "anonymous": false,
      "inputs": [
        {
          "indexed": false,
          "internalType": "bytes32",
          "name": "paymentId",
          "type": "bytes32"
        },
        {
          "indexed": false,
          "internalType": "uint256",
          "name": "amount",
          "type": "uint256"
        },
        {
          "indexed": true,
          "internalType": "address",
          "name": "sender",
          "type": "address"
        },
        {
          "indexed": false,
          "internalType": "bytes32",
          "name": "cudosAddress",
          "type": "bytes32"
        }
      ],
      "name": "NftMinted",
      "type": "event"
    },
    {
      "anonymous": false,
      "inputs": [
        {
          "indexed": false,
          "internalType": "address",
          "name": "payee",
          "type": "address"
        }
      ],
      "name": "PaymentsWithdrawn",
      "type": "event"
    },
    {
      "anonymous": false,
      "inputs": [
        {
          "indexed": false,
          "internalType": "bytes32",
          "name": "paymentId",
          "type": "bytes32"
        }
      ],
      "name": "WithdrawalsUnlocked",
      "type": "event"
    },
    {
      "inputs": [],
      "name": "cudosAccessControls",
      "outputs": [
        {
          "internalType": "contract CudosAccessControls",
          "name": "",
          "type": "address"
        }
      ],
      "stateMutability": "view",
      "type": "function"
    },
    {
      "inputs": [
        {
          "internalType": "bytes32",
          "name": "paymentId",
          "type": "bytes32"
        }
      ],
      "name": "getPaymentStatus",
      "outputs": [
        {
          "internalType": "enum CudosAuraPool.PaymentStatus",
          "name": "",
          "type": "uint8"
        }
      ],
      "stateMutability": "view",
      "type": "function"
    },
    {
      "inputs": [],
      "name": "getPayments",
      "outputs": [
        {
          "components": [
            {
              "internalType": "bytes32",
              "name": "id",
              "type": "bytes32"
            },
            {
              "internalType": "address",
              "name": "payee",
              "type": "address"
            },
            {
              "internalType": "uint256",
              "name": "amount",
              "type": "uint256"
            },
            {
              "internalType": "enum CudosAuraPool.PaymentStatus",
              "name": "status",
              "type": "uint8"
            },
            {
              "internalType": "bytes32",
              "name": "cudosAddress",
              "type": "bytes32"
            }
          ],
          "internalType": "struct CudosAuraPool.Payment[]",
          "name": "",
          "type": "tuple[]"
        }
      ],
      "stateMutability": "view",
      "type": "function"
    },
    {
      "inputs": [
        {
          "internalType": "bytes32",
          "name": "paymentId",
          "type": "bytes32"
        }
      ],
      "name": "markPaymentFinished",
      "outputs": [],
      "stateMutability": "nonpayable",
      "type": "function"
    },
    {
      "inputs": [
        {
          "internalType": "uint256",
          "name": "",
          "type": "uint256"
        }
      ],
      "name": "paymentIds",
      "outputs": [
        {
          "internalType": "bytes32",
          "name": "",
          "type": "bytes32"
        }
      ],
      "stateMutability": "view",
      "type": "function"
    },
    {
      "inputs": [
        {
          "internalType": "address",
          "name": "",
          "type": "address"
        },
        {
          "internalType": "uint256",
          "name": "",
          "type": "uint256"
        }
      ],
      "name": "paymentIdsByAddress",
      "outputs": [
        {
          "internalType": "bytes32",
          "name": "",
          "type": "bytes32"
        }
      ],
      "stateMutability": "view",
      "type": "function"
    },
    {
      "inputs": [
        {
          "internalType": "bytes32",
          "name": "",
          "type": "bytes32"
        }
      ],
      "name": "payments",
      "outputs": [
        {
          "internalType": "bytes32",
          "name": "id",
          "type": "bytes32"
        },
        {
          "internalType": "address",
          "name": "payee",
          "type": "address"
        },
        {
          "internalType": "uint256",
          "name": "amount",
          "type": "uint256"
        },
        {
          "internalType": "enum CudosAuraPool.PaymentStatus",
          "name": "status",
          "type": "uint8"
        },
        {
          "internalType": "bytes32",
          "name": "cudosAddress",
          "type": "bytes32"
        }
      ],
      "stateMutability": "view",
      "type": "function"
    },
    {
      "inputs": [
        {
          "internalType": "bytes32",
          "name": "paymentId",
          "type": "bytes32"
        },
        {
          "internalType": "bytes32",
          "name": "cudosAddress",
          "type": "bytes32"
        }
      ],
      "name": "sendPayment",
      "outputs": [],
      "stateMutability": "payable",
      "type": "function"
    },
    {
      "inputs": [
        {
          "internalType": "bytes32",
          "name": "paymentId",
          "type": "bytes32"
        }
      ],
      "name": "unlockPaymentWithdraw",
      "outputs": [],
      "stateMutability": "nonpayable",
      "type": "function"
    },
    {
      "inputs": [],
      "name": "withdrawFinishedPayments",
      "outputs": [],
      "stateMutability": "nonpayable",
      "type": "function"
    },
    {
      "inputs": [],
      "name": "withdrawPayments",
      "outputs": [],
      "stateMutability": "nonpayable",
      "type": "function"
    }
  ],
  "bytecode": "0x60a060405260405161131138038061131183398101604081905261002291610096565b60016000556001600160a01b0381161580159061004d575061004d8161008760201b610d501760201c565b6100725760405162461bcd60e51b8152600401610069906100c4565b60405180910390fd5b60601b6001600160601b031916608052610108565b6001600160a01b03163b151590565b6000602082840312156100a7578081fd5b81516001600160a01b03811681146100bd578182fd5b9392505050565b60208082526024908201527f496e76616c6964204375646f73416363657373436f6e74726f6c7320616464726040820152636573732160e01b606082015260800190565b60805160601c6111d661013b600039600081816103d801528181610594015281816105cd01526109ba01526111d66000f3fe60806040526004361061009c5760003560e01c8063323423d511610064578063323423d51461015f5780636103d70b146101745780639ba6737c14610189578063b124880a146101a9578063d56bd142146101c9578063f0013c03146101eb5761009c565b80630716326d146100a157806308ef9fbd146100db5780630fc577ab146100f0578063104f5ac6146101105780631c79c9701461013d575b600080fd5b3480156100ad57600080fd5b506100c16100bc366004610e1c565b610218565b6040516100d2959493929190610f15565b60405180910390f35b6100ee6100e9366004610e34565b610256565b005b3480156100fc57600080fd5b506100ee61010b366004610e1c565b6103c1565b34801561011c57600080fd5b5061013061012b366004610dbf565b610561565b6040516100d29190610f0c565b34801561014957600080fd5b50610152610592565b6040516100d29190610e77565b34801561016b57600080fd5b506100ee6105b6565b34801561018057600080fd5b506100ee6107bd565b34801561019557600080fd5b506101306101a4366004610e1c565b610982565b3480156101b557600080fd5b506100ee6101c4366004610e1c565b6109a3565b3480156101d557600080fd5b506101de610b30565b6040516100d29190610e8b565b3480156101f757600080fd5b5061020b610206366004610e1c565b610d09565b6040516100d29190610f65565b6001602081905260009182526040909120805491810154600282015460038301546004909301546001600160a01b0390921692909160ff9091169085565b61025e610d5f565b600034116102875760405162461bcd60e51b815260040161027e90610fb0565b60405180910390fd5b600082815260016020526040902060020154156102b65760405162461bcd60e51b815260040161027e9061104e565b816102d35760405162461bcd60e51b815260040161027e90610f79565b806102f05760405162461bcd60e51b815260040161027e90610fe7565b600082815260016020818152604080842086815580840180546001600160a01b03191633908117909155346002808401829055600484018990558288528552838720805480880182559088529487209094018890556003805495860181559095527fc2575a0e9e593c00f959f8c92f12db2869c3395a3b0502d05e2516446f71f85b909301869055519192917f774043c74672606e1632cefc9e429ab98fbe524d429a7d332b1730eadb6bed0c916103ac918791908790610f4f565b60405180910390a2506103bd610d89565b5050565b60405163c395fcb360e01b81526001600160a01b037f0000000000000000000000000000000000000000000000000000000000000000169063c395fcb39061040d903390600401610e77565b60206040518083038186803b15801561042557600080fd5b505afa158015610439573d6000803e3d6000fd5b505050506040513d601f19601f8201168201806040525081019061045d9190610df5565b6104795760405162461bcd60e51b815260040161027e906110e9565b610481610d5f565b6000818152600160205260409020600201546104af5760405162461bcd60e51b815260040161027e906110b2565b60008181526001602052604081206003015460ff1660048111156104e357634e487b7160e01b600052602160045260246000fd5b146105005760405162461bcd60e51b815260040161027e9061101e565b600081815260016020819052604091829020600301805460ff19169091179055517f5281f521fe3fb84d8ad75ec1cd5afed1c04da80384b0e5cb1a081280942e1e279061054e908390610f0c565b60405180910390a161055e610d89565b50565b6002602052816000526040600020818154811061057d57600080fd5b90600052602060002001600091509150505481565b7f000000000000000000000000000000000000000000000000000000000000000081565b60405163c395fcb360e01b81526001600160a01b037f0000000000000000000000000000000000000000000000000000000000000000169063c395fcb390610602903390600401610e77565b60206040518083038186803b15801561061a57600080fd5b505afa15801561062e573d6000803e3d6000fd5b505050506040513d601f19601f820116820180604052508101906106529190610df5565b61066e5760405162461bcd60e51b815260040161027e906110e9565b610676610d5f565b6000805b60035481101561074c57600060016000600384815481106106ab57634e487b7160e01b600052603260045260246000fd5b906000526020600020015481526020019081526020016000209050600360048111156106e757634e487b7160e01b600052602160045260246000fd5b600382015460ff16600481111561070e57634e487b7160e01b600052602160045260246000fd5b14610719575061073c565b60028101546107289084611157565b600391909101805460ff1916600417905591505b6107458161116f565b905061067a565b50604051339082156108fc029083906000818181858888f1935050505015801561077a573d6000803e3d6000fd5b507f28bbfa84822da8350f42704e732639c053ff055b08c009afabc33327ef16496a336040516107aa9190610e77565b60405180910390a1506107bb610d89565b565b6107c5610d5f565b336000908152600260205260409020546107de5761097a565b3360009081526002602090815260408083208054825181850281018501909352808352919290919083018282801561083557602002820191906000526020600020905b815481526020019060010190808311610821575b50505050509050600080600090505b82518110156109115760006001600085848151811061087357634e487b7160e01b600052603260045260246000fd5b602002602001015181526020019081526020016000209050600160048111156108ac57634e487b7160e01b600052602160045260246000fd5b600382015460ff1660048111156108d357634e487b7160e01b600052602160045260246000fd5b146108de5750610901565b60028101546108ed9084611157565b600391909101805460ff1916600217905591505b61090a8161116f565b9050610844565b50604051339082156108fc029083906000818181858888f1935050505015801561093f573d6000803e3d6000fd5b507fc6050095029b05868634d497408822da7c6fadcbdfbf6a65d7e50e9eaaa812273360405161096f9190610e77565b60405180910390a150505b6107bb610d89565b6003818154811061099257600080fd5b600091825260209091200154905081565b60405163c395fcb360e01b81526001600160a01b037f0000000000000000000000000000000000000000000000000000000000000000169063c395fcb3906109ef903390600401610e77565b60206040518083038186803b158015610a0757600080fd5b505afa158015610a1b573d6000803e3d6000fd5b505050506040513d601f19601f82011682018060405250810190610a3f9190610df5565b610a5b5760405162461bcd60e51b815260040161027e906110e9565b610a63610d5f565b600081815260016020526040902060020154610a915760405162461bcd60e51b815260040161027e906110b2565b60008181526001602052604081206003015460ff166004811115610ac557634e487b7160e01b600052602160045260246000fd5b14610ae25760405162461bcd60e51b815260040161027e90611085565b600081815260016020526040908190206003908101805460ff19169091179055517fd7518280dcbf1da9a9e60ccc5e18568a71dc83c6cbf4b49d04331d851d3c0c5d9061054e908390610f0c565b336000908152600260209081526040808320805482518185028101850190935280835260609493830182828015610b8657602002820191906000526020600020905b815481526020019060010190808311610b72575b505050505090506000815167ffffffffffffffff811115610bb757634e487b7160e01b600052604160045260246000fd5b604051908082528060200260200182016040528015610bf057816020015b610bdd610d90565b815260200190600190039081610bd55790505b50905060005b8251811015610d025760016000848381518110610c2357634e487b7160e01b600052603260045260246000fd5b6020908102919091018101518252818101929092526040908101600020815160a0810183528154815260018201546001600160a01b0316938101939093526002810154918301919091526003810154606083019060ff166004811115610c9957634e487b7160e01b600052602160045260246000fd5b6004811115610cb857634e487b7160e01b600052602160045260246000fd5b8152602001600482015481525050828281518110610ce657634e487b7160e01b600052603260045260246000fd5b602002602001018190525080610cfb9061116f565b9050610bf6565b5091505090565b600081815260016020526040812060020154610d375760405162461bcd60e51b815260040161027e906110b2565b5060009081526001602052604090206003015460ff1690565b6001600160a01b03163b151590565b60026000541415610d825760405162461bcd60e51b815260040161027e90611120565b6002600055565b6001600055565b6040805160a0810182526000808252602082018190529181018290529060608201908152600060209091015290565b60008060408385031215610dd1578182fd5b82356001600160a01b0381168114610de7578283fd5b946020939093013593505050565b600060208284031215610e06578081fd5b81518015158114610e15578182fd5b9392505050565b600060208284031215610e2d578081fd5b5035919050565b60008060408385031215610e46578182fd5b50508035926020909101359150565b60058110610e7357634e487b7160e01b600052602160045260246000fd5b9052565b6001600160a01b0391909116815260200190565b602080825282518282018190526000919060409081850190868401855b82811015610eff57815180518552868101516001600160a01b0316878601528581015186860152606080820151610ee182880182610e55565b50506080908101519085015260a09093019290850190600101610ea8565b5091979650505050505050565b90815260200190565b8581526001600160a01b03851660208201526040810184905260a08101610f3f6060830185610e55565b8260808301529695505050505050565b9283526020830191909152604082015260600190565b60208101610f738284610e55565b92915050565b6020808252601a908201527f5061796d656e7449642063616e6e6f7420626520656d70747921000000000000604082015260600190565b60208082526018908201527f416d6f756e74206d75737420626520706f736974697665210000000000000000604082015260600190565b6020808252601d908201527f4375646f73416464726573732063616e6e6f7420626520656d70747921000000604082015260600190565b6020808252601690820152755061796d656e74206973206e6f74206c6f636b65642160501b604082015260600190565b60208082526017908201527f5061796d656e74496420616c7265616479207573656421000000000000000000604082015260600190565b6020808252601390820152725061796d656e74206e6f74206c6f636b65642160681b604082015260600190565b60208082526017908201527f4e6f6e206578697374696e67207061796d656e74496421000000000000000000604082015260600190565b6020808252601a908201527f526563697069656e74206973206e6f7420616e2061646d696e21000000000000604082015260600190565b6020808252601f908201527f5265656e7472616e637947756172643a207265656e7472616e742063616c6c00604082015260600190565b6000821982111561116a5761116a61118a565b500190565b60006000198214156111835761118361118a565b5060010190565b634e487b7160e01b600052601160045260246000fdfea264697066735822122042e9c1754484632a30681fd5d9a931b6e4145d4919eb725f106385612b75e51964736f6c63430008010033",
  "linkReferences": {},
  "deployedLinkReferences": {}
}