{
  "_format": "hh-sol-artifact-1",
  "contractName": "CudosAuraPool",
  "sourceName": "contracts/CudosAuraPool.sol",
  "abi": [
    {
      "inputs": [
        {
          "internalType": "contract CudosAccessControls",
          "name": "_cudosAccessControls",
          "type": "address"
        }
      ],
      "stateMutability": "payable",
      "type": "constructor"
    },
    {
      "anonymous": false,
      "inputs": [
        {
          "indexed": false,
          "internalType": "address",
          "name": "withdrawer",
          "type": "address"
        }
      ],
      "name": "FinishedPaymentsWithdrawn",
      "type": "event"
    },
    {
      "anonymous": false,
      "inputs": [
        {
          "indexed": false,
          "internalType": "bytes",
          "name": "paymentId",
          "type": "bytes"
        }
      ],
      "name": "MarkedAsFinished",
      "type": "event"
    },
    {
      "anonymous": false,
      "inputs": [
        {
          "indexed": false,
          "internalType": "bytes",
          "name": "paymentId",
          "type": "bytes"
        },
        {
          "indexed": false,
          "internalType": "uint256",
          "name": "amount",
          "type": "uint256"
        },
        {
          "indexed": true,
          "internalType": "address",
          "name": "sender",
          "type": "address"
        },
        {
          "indexed": false,
          "internalType": "bytes",
          "name": "cudosAddress",
          "type": "bytes"
        }
      ],
      "name": "NftMinted",
      "type": "event"
    },
    {
      "anonymous": false,
      "inputs": [
        {
          "indexed": false,
          "internalType": "address",
          "name": "payee",
          "type": "address"
        }
      ],
      "name": "PaymentsWithdrawn",
      "type": "event"
    },
    {
      "anonymous": false,
      "inputs": [
        {
          "indexed": false,
          "internalType": "bytes",
          "name": "paymentId",
          "type": "bytes"
        }
      ],
      "name": "WithdrawalsUnlocked",
      "type": "event"
    },
    {
      "inputs": [],
      "name": "cudosAccessControls",
      "outputs": [
        {
          "internalType": "contract CudosAccessControls",
          "name": "",
          "type": "address"
        }
      ],
      "stateMutability": "view",
      "type": "function"
    },
    {
      "inputs": [
        {
          "internalType": "bytes",
          "name": "paymentId",
          "type": "bytes"
        }
      ],
      "name": "getPaymentStatus",
      "outputs": [
        {
          "internalType": "enum CudosAuraPool.PaymentStatus",
          "name": "",
          "type": "uint8"
        }
      ],
      "stateMutability": "view",
      "type": "function"
    },
    {
      "inputs": [],
      "name": "getPayments",
      "outputs": [
        {
          "components": [
            {
              "internalType": "bytes",
              "name": "id",
              "type": "bytes"
            },
            {
              "internalType": "address",
              "name": "payee",
              "type": "address"
            },
            {
              "internalType": "uint256",
              "name": "amount",
              "type": "uint256"
            },
            {
              "internalType": "enum CudosAuraPool.PaymentStatus",
              "name": "status",
              "type": "uint8"
            },
            {
              "internalType": "bytes",
              "name": "cudosAddress",
              "type": "bytes"
            }
          ],
          "internalType": "struct CudosAuraPool.Payment[]",
          "name": "",
          "type": "tuple[]"
        }
      ],
      "stateMutability": "view",
      "type": "function"
    },
    {
      "inputs": [
        {
          "internalType": "bytes",
          "name": "paymentId",
          "type": "bytes"
        }
      ],
      "name": "markPaymentFinished",
      "outputs": [],
      "stateMutability": "nonpayable",
      "type": "function"
    },
    {
      "inputs": [
        {
          "internalType": "uint256",
          "name": "",
          "type": "uint256"
        }
      ],
      "name": "paymentIds",
      "outputs": [
        {
          "internalType": "bytes",
          "name": "",
          "type": "bytes"
        }
      ],
      "stateMutability": "view",
      "type": "function"
    },
    {
      "inputs": [
        {
          "internalType": "address",
          "name": "",
          "type": "address"
        },
        {
          "internalType": "uint256",
          "name": "",
          "type": "uint256"
        }
      ],
      "name": "paymentIdsByAddress",
      "outputs": [
        {
          "internalType": "bytes",
          "name": "",
          "type": "bytes"
        }
      ],
      "stateMutability": "view",
      "type": "function"
    },
    {
      "inputs": [
        {
          "internalType": "bytes",
          "name": "",
          "type": "bytes"
        }
      ],
      "name": "payments",
      "outputs": [
        {
          "internalType": "bytes",
          "name": "id",
          "type": "bytes"
        },
        {
          "internalType": "address",
          "name": "payee",
          "type": "address"
        },
        {
          "internalType": "uint256",
          "name": "amount",
          "type": "uint256"
        },
        {
          "internalType": "enum CudosAuraPool.PaymentStatus",
          "name": "status",
          "type": "uint8"
        },
        {
          "internalType": "bytes",
          "name": "cudosAddress",
          "type": "bytes"
        }
      ],
      "stateMutability": "view",
      "type": "function"
    },
    {
      "inputs": [
        {
          "internalType": "bytes",
          "name": "paymentId",
          "type": "bytes"
        },
        {
          "internalType": "bytes",
          "name": "cudosAddress",
          "type": "bytes"
        }
      ],
      "name": "sendPayment",
      "outputs": [],
      "stateMutability": "payable",
      "type": "function"
    },
    {
      "inputs": [
        {
          "internalType": "bytes",
          "name": "paymentId",
          "type": "bytes"
        }
      ],
      "name": "unlockPaymentWithdraw",
      "outputs": [],
      "stateMutability": "nonpayable",
      "type": "function"
    },
    {
      "inputs": [],
      "name": "withdrawFinishedPayments",
      "outputs": [],
      "stateMutability": "nonpayable",
      "type": "function"
    },
    {
      "inputs": [],
      "name": "withdrawPayments",
      "outputs": [],
      "stateMutability": "nonpayable",
      "type": "function"
    }
  ],
  "bytecode": "0x60a060405260405162001bbf38038062001bbf8339810160408190526200002691620000a2565b60016000556001600160a01b0381161580159062000055575062000055816200009360201b620012421760201c565b6200007d5760405162461bcd60e51b81526004016200007490620000d2565b60405180910390fd5b60601b6001600160601b03191660805262000116565b6001600160a01b03163b151590565b600060208284031215620000b4578081fd5b81516001600160a01b0381168114620000cb578182fd5b9392505050565b60208082526024908201527f496e76616c6964204375646f73416363657373436f6e74726f6c7320616464726040820152636573732160e01b606082015260800190565b60805160601c611a756200014a6000396000818161038b0152818161062f015281816106680152610c670152611a756000f3fe60806040526004361061009c5760003560e01c80636103d70b116100645780636103d70b146101615780636fe8a4f214610176578063709379ad146101895780639ba6737c146101a9578063b4cb9e67146101c9578063d56bd142146101f65761009c565b806301f175b5146100a15780630432dc5b146100db578063104f5ac6146100fd5780631c79c9701461012a578063323423d51461014c575b600080fd5b3480156100ad57600080fd5b506100c16100bc366004611456565b610218565b6040516100d29594939291906116ee565b60405180910390f35b3480156100e757600080fd5b506100fb6100f6366004611456565b610374565b005b34801561010957600080fd5b5061011d6101183660046113f9565b610574565b6040516100d291906116db565b34801561013657600080fd5b5061013f61062d565b6040516100d2919061160f565b34801561015857600080fd5b506100fb610651565b34801561016d57600080fd5b506100fb610843565b6100fb610184366004611491565b610a76565b34801561019557600080fd5b506100fb6101a4366004611456565b610c50565b3480156101b557600080fd5b5061011d6101c43660046114f2565b610e35565b3480156101d557600080fd5b506101e96101e4366004611456565b610e60565b6040516100d29190611777565b34801561020257600080fd5b5061020b610ecf565b6040516100d29190611623565b805160208183018101805160018252928201919093012091528054819061023e906119bd565b80601f016020809104026020016040519081016040528092919081815260200182805461026a906119bd565b80156102b75780601f1061028c576101008083540402835291602001916102b7565b820191906000526020600020905b81548152906001019060200180831161029a57829003601f168201915b50505060018401546002850154600386015460048701805496976001600160a01b039094169692955060ff9091169350906102f1906119bd565b80601f016020809104026020016040519081016040528092919081815260200182805461031d906119bd565b801561036a5780601f1061033f5761010080835404028352916020019161036a565b820191906000526020600020905b81548152906001019060200180831161034d57829003601f168201915b5050505050905085565b60405163c395fcb360e01b81526001600160a01b037f0000000000000000000000000000000000000000000000000000000000000000169063c395fcb3906103c090339060040161160f565b60206040518083038186803b1580156103d857600080fd5b505afa1580156103ec573d6000803e3d6000fd5b505050506040513d601f19601f82011682018060405250810190610410919061142f565b6104355760405162461bcd60e51b815260040161042c906118fb565b60405180910390fd5b61043d611251565b600060018260405161044f9190611558565b9081526020016040518091039020600201541161047e5760405162461bcd60e51b815260040161042c906118c4565b60006001826040516104909190611558565b9081526040519081900360200190206003015460ff1660048111156104c557634e487b7160e01b600052602160045260246000fd5b146104e25760405162461bcd60e51b815260040161042c90611830565b600180826040516104f39190611558565b908152604051908190036020019020600301805460ff1916600183600481111561052d57634e487b7160e01b600052602160045260246000fd5b02179055507f6a54bcfecc0afa14183bfa3039c42329da7f56d5c8c12ff1d6f0863a22a7fbb18160405161056191906116db565b60405180910390a161057161127b565b50565b6002602052816000526040600020818154811061059057600080fd5b906000526020600020016000915091505080546105ac906119bd565b80601f01602080910402602001604051908101604052809291908181526020018280546105d8906119bd565b80156106255780601f106105fa57610100808354040283529160200191610625565b820191906000526020600020905b81548152906001019060200180831161060857829003601f168201915b505050505081565b7f000000000000000000000000000000000000000000000000000000000000000081565b60405163c395fcb360e01b81526001600160a01b037f0000000000000000000000000000000000000000000000000000000000000000169063c395fcb39061069d90339060040161160f565b60206040518083038186803b1580156106b557600080fd5b505afa1580156106c9573d6000803e3d6000fd5b505050506040513d601f19601f820116820180604052508101906106ed919061142f565b6107095760405162461bcd60e51b815260040161042c906118fb565b610711611251565b6000805b6003548110156107d257600060016003838154811061074457634e487b7160e01b600052603260045260246000fd5b9060005260206000200160405161075b9190611574565b908152604051908190036020019020905060038082015460ff16600481111561079457634e487b7160e01b600052602160045260246000fd5b1461079f57506107c2565b60028101546107ae9084611975565b600391909101805460ff1916600417905591505b6107cb816119f8565b9050610715565b50604051339082156108fc029083906000818181858888f19350505050158015610800573d6000803e3d6000fd5b507f28bbfa84822da8350f42704e732639c053ff055b08c009afabc33327ef16496a33604051610830919061160f565b60405180910390a15061084161127b565b565b61084b611251565b3360009081526002602052604090205461086457610a6e565b33600090815260026020908152604080832080548251818502810185019093528083529192909190849084015b8282101561093d5783829060005260206000200180546108b0906119bd565b80601f01602080910402602001604051908101604052809291908181526020018280546108dc906119bd565b80156109295780601f106108fe57610100808354040283529160200191610929565b820191906000526020600020905b81548152906001019060200180831161090c57829003601f168201915b505050505081526020019060010190610891565b505050509050600080600090505b8251811015610a05576000600184838151811061097857634e487b7160e01b600052603260045260246000fd5b602002602001015160405161098d9190611558565b90815260405190819003602001902090506001600382015460ff1660048111156109c757634e487b7160e01b600052602160045260246000fd5b146109d257506109f5565b60028101546109e19084611975565b600391909101805460ff1916600217905591505b6109fe816119f8565b905061094b565b50604051339082156108fc029083906000818181858888f19350505050158015610a33573d6000803e3d6000fd5b507fc6050095029b05868634d497408822da7c6fadcbdfbf6a65d7e50e9eaaa8122733604051610a63919061160f565b60405180910390a150505b61084161127b565b610a7e611251565b60003411610a9e5760405162461bcd60e51b815260040161042c906117c2565b600182604051610aae9190611558565b908152602001604051809103902060020154600014610adf5760405162461bcd60e51b815260040161042c90611860565b8151610afd5760405162461bcd60e51b815260040161042c9061178b565b8051610b1b5760405162461bcd60e51b815260040161042c906117f9565b6000600183604051610b2d9190611558565b9081526020016040518091039020905082816000019080519060200190610b55929190611282565b506001810180546001600160a01b031916331790553460028201558151610b859060048301906020850190611282565b5033600090815260026020908152604082208054600181018255908352918190208551610bb9939190910191860190611282565b50600380546001810182556000919091528351610bfd917fc2575a0e9e593c00f959f8c92f12db2869c3395a3b0502d05e2516446f71f85b01906020860190611282565b50336001600160a01b03167fe02c597b62aeed92402cd8a35d6eeba51ddb6603ebec3f40fdcf23d2250a2336843485604051610c3b93929190611742565b60405180910390a250610c4c61127b565b5050565b60405163c395fcb360e01b81526001600160a01b037f0000000000000000000000000000000000000000000000000000000000000000169063c395fcb390610c9c90339060040161160f565b60206040518083038186803b158015610cb457600080fd5b505afa158015610cc8573d6000803e3d6000fd5b505050506040513d601f19601f82011682018060405250810190610cec919061142f565b610d085760405162461bcd60e51b815260040161042c906118fb565b610d10611251565b6000600182604051610d229190611558565b90815260200160405180910390206002015411610d515760405162461bcd60e51b815260040161042c906118c4565b6000600182604051610d639190611558565b9081526040519081900360200190206003015460ff166004811115610d9857634e487b7160e01b600052602160045260246000fd5b14610db55760405162461bcd60e51b815260040161042c90611897565b6003600182604051610dc79190611558565b908152604051908190036020019020600301805460ff19166001836004811115610e0157634e487b7160e01b600052602160045260246000fd5b02179055507f42794b61af4fc3452ae3239d5a13bdc34e3d17badd7b99dbdc1cd3c82e712bbd8160405161056191906116db565b60038181548110610e4557600080fd5b9060005260206000200160009150905080546105ac906119bd565b600080600183604051610e739190611558565b90815260200160405180910390206002015411610ea25760405162461bcd60e51b815260040161042c906118c4565b600182604051610eb29190611558565b9081526040519081900360200190206003015460ff169050919050565b336000908152600260209081526040808320805482518185028101850190935280835260609493849084015b82821015610fa7578382906000526020600020018054610f1a906119bd565b80601f0160208091040260200160405190810160405280929190818152602001828054610f46906119bd565b8015610f935780601f10610f6857610100808354040283529160200191610f93565b820191906000526020600020905b815481529060010190602001808311610f7657829003601f168201915b505050505081526020019060010190610efb565b5050505090506000815167ffffffffffffffff811115610fd757634e487b7160e01b600052604160045260246000fd5b60405190808252806020026020018201604052801561101057816020015b610ffd611306565b815260200190600190039081610ff55790505b50905060005b825181101561123b57600183828151811061104157634e487b7160e01b600052603260045260246000fd5b60200260200101516040516110569190611558565b90815260200160405180910390206040518060a001604052908160008201805461107f906119bd565b80601f01602080910402602001604051908101604052809291908181526020018280546110ab906119bd565b80156110f85780601f106110cd576101008083540402835291602001916110f8565b820191906000526020600020905b8154815290600101906020018083116110db57829003601f168201915b505050918352505060018201546001600160a01b0316602082015260028201546040820152600382015460609091019060ff16600481111561114a57634e487b7160e01b600052602160045260246000fd5b600481111561116957634e487b7160e01b600052602160045260246000fd5b815260200160048201805461117d906119bd565b80601f01602080910402602001604051908101604052809291908181526020018280546111a9906119bd565b80156111f65780601f106111cb576101008083540402835291602001916111f6565b820191906000526020600020905b8154815290600101906020018083116111d957829003601f168201915b50505050508152505082828151811061121f57634e487b7160e01b600052603260045260246000fd5b602002602001018190525080611234906119f8565b9050611016565b5091505090565b6001600160a01b03163b151590565b600260005414156112745760405162461bcd60e51b815260040161042c90611932565b6002600055565b6001600055565b82805461128e906119bd565b90600052602060002090601f0160209004810192826112b057600085556112f6565b82601f106112c957805160ff19168380011785556112f6565b828001600101855582156112f6579182015b828111156112f65782518255916020019190600101906112db565b5061130292915061135d565b5090565b6040518060a001604052806060815260200160006001600160a01b03168152602001600081526020016000600481111561135057634e487b7160e01b600052602160045260246000fd5b8152602001606081525090565b5b80821115611302576000815560010161135e565b600082601f830112611382578081fd5b813567ffffffffffffffff8082111561139d5761139d611a29565b604051601f8301601f19908116603f011681019082821181831017156113c5576113c5611a29565b816040528381528660208588010111156113dd578485fd5b8360208701602083013792830160200193909352509392505050565b6000806040838503121561140b578182fd5b82356001600160a01b0381168114611421578283fd5b946020939093013593505050565b600060208284031215611440578081fd5b8151801515811461144f578182fd5b9392505050565b600060208284031215611467578081fd5b813567ffffffffffffffff81111561147d578182fd5b61148984828501611372565b949350505050565b600080604083850312156114a3578182fd5b823567ffffffffffffffff808211156114ba578384fd5b6114c686838701611372565b935060208501359150808211156114db578283fd5b506114e885828601611372565b9150509250929050565b600060208284031215611503578081fd5b5035919050565b6000815180845261152281602086016020860161198d565b601f01601f19169290920160200192915050565b6005811061155457634e487b7160e01b600052602160045260246000fd5b9052565b6000825161156a81846020870161198d565b9190910192915050565b815460009081906002810460018083168061159057607f831692505b60208084108214156115b057634e487b7160e01b87526022600452602487fd5b8180156115c457600181146115d557611601565b60ff19861689528489019650611601565b6115de8a611969565b885b868110156115f95781548b8201529085019083016115e0565b505084890196505b509498975050505050505050565b6001600160a01b0391909116815260200190565b60208082528251828201819052600091906040908185019080840286018301878501865b838110156116cd57603f19898403018552815160a0815181865261166d8287018261150a565b838b01516001600160a01b0316878c0152898401518a880152606080850151919350915061169d82880182611536565b5050608080830151925085820381870152506116b9818361150a565b968901969450505090860190600101611647565b509098975050505050505050565b60006020825261144f602083018461150a565b600060a0825261170160a083018861150a565b6001600160a01b0387166020840152604083018690526117246060840186611536565b8281036080840152611736818561150a565b98975050505050505050565b600060608252611755606083018661150a565b846020840152828103604084015261176d818561150a565b9695505050505050565b602081016117858284611536565b92915050565b6020808252601a908201527f5061796d656e7449642063616e6e6f7420626520656d70747921000000000000604082015260600190565b60208082526018908201527f416d6f756e74206d75737420626520706f736974697665210000000000000000604082015260600190565b6020808252601d908201527f4375646f73416464726573732063616e6e6f7420626520656d70747921000000604082015260600190565b6020808252601690820152755061796d656e74206973206e6f74206c6f636b65642160501b604082015260600190565b60208082526017908201527f5061796d656e74496420616c7265616479207573656421000000000000000000604082015260600190565b6020808252601390820152725061796d656e74206e6f74206c6f636b65642160681b604082015260600190565b60208082526017908201527f4e6f6e206578697374696e67207061796d656e74496421000000000000000000604082015260600190565b6020808252601a908201527f526563697069656e74206973206e6f7420616e2061646d696e21000000000000604082015260600190565b6020808252601f908201527f5265656e7472616e637947756172643a207265656e7472616e742063616c6c00604082015260600190565b60009081526020902090565b6000821982111561198857611988611a13565b500190565b60005b838110156119a8578181015183820152602001611990565b838111156119b7576000848401525b50505050565b6002810460018216806119d157607f821691505b602082108114156119f257634e487b7160e01b600052602260045260246000fd5b50919050565b6000600019821415611a0c57611a0c611a13565b5060010190565b634e487b7160e01b600052601160045260246000fd5b634e487b7160e01b600052604160045260246000fdfea264697066735822122085a5443b0d7bad24dc58760204ab2d32668e75fb869cae848de361058a2a11c764736f6c63430008010033",
  "linkReferences": {},
  "deployedLinkReferences": {}
}