{
  "_format": "hh-sol-artifact-1",
  "contractName": "CudosAuraPool",
  "sourceName": "contracts/CudosAuraPool.sol",
  "abi": [
    {
      "inputs": [
        {
          "internalType": "contract CudosAccessControls",
          "name": "_cudosAccessControls",
          "type": "address"
        }
      ],
      "stateMutability": "payable",
      "type": "constructor"
    },
    {
      "anonymous": false,
      "inputs": [
        {
          "indexed": false,
          "internalType": "address",
          "name": "withdrawer",
          "type": "address"
        }
      ],
      "name": "FinishedPaymentsWithdrawn",
      "type": "event"
    },
    {
      "anonymous": false,
      "inputs": [
        {
          "indexed": false,
          "internalType": "uint32",
          "name": "paymentId",
          "type": "uint32"
        }
      ],
      "name": "MarkedAsFinished",
      "type": "event"
    },
    {
      "anonymous": false,
      "inputs": [
        {
          "indexed": false,
          "internalType": "uint32",
          "name": "paymentId",
          "type": "uint32"
        },
        {
          "indexed": false,
          "internalType": "bytes",
          "name": "nftId",
          "type": "bytes"
        },
        {
          "indexed": false,
          "internalType": "uint256",
          "name": "amount",
          "type": "uint256"
        },
        {
          "indexed": true,
          "internalType": "address",
          "name": "sender",
          "type": "address"
        },
        {
          "indexed": false,
          "internalType": "bytes",
          "name": "cudosAddress",
          "type": "bytes"
        }
      ],
      "name": "NftMinted",
      "type": "event"
    },
    {
      "anonymous": false,
      "inputs": [
        {
          "indexed": false,
          "internalType": "address",
          "name": "payee",
          "type": "address"
        }
      ],
      "name": "PaymentsWithdrawn",
      "type": "event"
    },
    {
      "anonymous": false,
      "inputs": [
        {
          "indexed": false,
          "internalType": "uint32",
          "name": "paymentId",
          "type": "uint32"
        }
      ],
      "name": "WithdrawalsUnlocked",
      "type": "event"
    },
    {
      "inputs": [],
      "name": "cudosAccessControls",
      "outputs": [
        {
          "internalType": "contract CudosAccessControls",
          "name": "",
          "type": "address"
        }
      ],
      "stateMutability": "view",
      "type": "function"
    },
    {
      "inputs": [
        {
          "internalType": "uint32",
          "name": "paymentId",
          "type": "uint32"
        }
      ],
      "name": "getPaymentStatus",
      "outputs": [
        {
          "internalType": "enum CudosAuraPool.PaymentStatus",
          "name": "",
          "type": "uint8"
        }
      ],
      "stateMutability": "view",
      "type": "function"
    },
    {
      "inputs": [],
      "name": "getPayments",
      "outputs": [
        {
          "components": [
            {
              "internalType": "uint32",
              "name": "paymentId",
              "type": "uint32"
            },
            {
              "internalType": "bytes",
              "name": "nftId",
              "type": "bytes"
            },
            {
              "internalType": "address",
              "name": "payee",
              "type": "address"
            },
            {
              "internalType": "uint256",
              "name": "amount",
              "type": "uint256"
            },
            {
              "internalType": "enum CudosAuraPool.PaymentStatus",
              "name": "status",
              "type": "uint8"
            },
            {
              "internalType": "bytes",
              "name": "cudosAddress",
              "type": "bytes"
            }
          ],
          "internalType": "struct CudosAuraPool.Payment[]",
          "name": "",
          "type": "tuple[]"
        }
      ],
      "stateMutability": "view",
      "type": "function"
    },
    {
      "inputs": [
        {
          "internalType": "uint32",
          "name": "paymentId",
          "type": "uint32"
        }
      ],
      "name": "markPaymentFinished",
      "outputs": [],
      "stateMutability": "nonpayable",
      "type": "function"
    },
    {
      "inputs": [
        {
          "internalType": "address",
          "name": "",
          "type": "address"
        },
        {
          "internalType": "uint256",
          "name": "",
          "type": "uint256"
        }
      ],
      "name": "paymentIdsByAddress",
      "outputs": [
        {
          "internalType": "uint32",
          "name": "",
          "type": "uint32"
        }
      ],
      "stateMutability": "view",
      "type": "function"
    },
    {
      "inputs": [
        {
          "internalType": "uint32",
          "name": "",
          "type": "uint32"
        }
      ],
      "name": "payments",
      "outputs": [
        {
          "internalType": "uint32",
          "name": "paymentId",
          "type": "uint32"
        },
        {
          "internalType": "bytes",
          "name": "nftId",
          "type": "bytes"
        },
        {
          "internalType": "address",
          "name": "payee",
          "type": "address"
        },
        {
          "internalType": "uint256",
          "name": "amount",
          "type": "uint256"
        },
        {
          "internalType": "enum CudosAuraPool.PaymentStatus",
          "name": "status",
          "type": "uint8"
        },
        {
          "internalType": "bytes",
          "name": "cudosAddress",
          "type": "bytes"
        }
      ],
      "stateMutability": "view",
      "type": "function"
    },
    {
      "inputs": [
        {
          "internalType": "bytes",
          "name": "",
          "type": "bytes"
        }
      ],
      "name": "pendingNftIds",
      "outputs": [
        {
          "internalType": "bool",
          "name": "",
          "type": "bool"
        }
      ],
      "stateMutability": "view",
      "type": "function"
    },
    {
      "inputs": [
        {
          "internalType": "bytes",
          "name": "nftId",
          "type": "bytes"
        },
        {
          "internalType": "bytes",
          "name": "cudosAddress",
          "type": "bytes"
        }
      ],
      "name": "sendPayment",
      "outputs": [],
      "stateMutability": "payable",
      "type": "function"
    },
    {
      "inputs": [
        {
          "internalType": "uint32",
          "name": "paymentId",
          "type": "uint32"
        }
      ],
      "name": "unlockPaymentWithdraw",
      "outputs": [],
      "stateMutability": "nonpayable",
      "type": "function"
    },
    {
      "inputs": [],
      "name": "withdrawFinishedPayments",
      "outputs": [],
      "stateMutability": "nonpayable",
      "type": "function"
    },
    {
      "inputs": [],
      "name": "withdrawPayments",
      "outputs": [],
      "stateMutability": "nonpayable",
      "type": "function"
    }
  ],
  "bytecode": "0x60a060405260405162001b0538038062001b058339810160408190526200002691620000b4565b60016000556001600160a01b038116158015906200005557506200005581620000a560201b620011151760201c565b6200007d5760405162461bcd60e51b81526004016200007490620000e4565b60405180910390fd5b60601b6001600160601b03191660805260048054600163ffffffff1990911617905562000128565b6001600160a01b03163b151590565b600060208284031215620000c6578081fd5b81516001600160a01b0381168114620000dd578182fd5b9392505050565b60208082526024908201527f496e76616c6964204375646f73416363657373436f6e74726f6c7320616464726040820152636573732160e01b606082015260800190565b60805160601c6119a96200015c60003960008181610271015281816102aa015281816104980152610ac601526119a96000f3fe60806040526004361061009c5760003560e01c80636fe8a4f2116100645780636fe8a4f21461014557806388316447146101585780638fe3e24514610185578063c91cd029146101a5578063d56bd142146101d2578063f97ea61f146101f45761009c565b8063104f5ac6146100a15780631c79c970146100d75780631f515b26146100f9578063323423d51461011b5780636103d70b14610130575b600080fd5b3480156100ad57600080fd5b506100c16100bc3660046112a9565b610226565b6040516100ce919061179d565b60405180910390f35b3480156100e357600080fd5b506100ec61026f565b6040516100ce91906114cb565b34801561010557600080fd5b506101196101143660046113a2565b610293565b005b34801561012757600080fd5b50610119610481565b34801561013c57600080fd5b50610119610647565b610119610153366004611341565b610844565b34801561016457600080fd5b506101786101733660046113a2565b610a5b565b6040516100ce91906115b2565b34801561019157600080fd5b506101196101a03660046113a2565b610aaf565b3480156101b157600080fd5b506101c56101c0366004611306565b610c50565b6040516100ce91906115a7565b3480156101de57600080fd5b506101e7610c70565b6040516100ce91906114df565b34801561020057600080fd5b5061021461020f3660046113a2565b610fb5565b6040516100ce969594939291906117ae565b6002602052816000526040600020818154811061024257600080fd5b9060005260206000209060089182820401919006600402915091509054906101000a900463ffffffff1681565b7f000000000000000000000000000000000000000000000000000000000000000081565b60405163c395fcb360e01b81526001600160a01b037f0000000000000000000000000000000000000000000000000000000000000000169063c395fcb3906102df9033906004016114cb565b60206040518083038186803b1580156102f757600080fd5b505afa15801561030b573d6000803e3d6000fd5b505050506040513d601f19601f8201168201806040525081019061032f91906112df565b6103545760405162461bcd60e51b815260040161034b906116f8565b60405180910390fd5b61035c611124565b63ffffffff81166000908152600160205260409020600301546103915760405162461bcd60e51b815260040161034b906116c1565b63ffffffff8116600090815260016020526040812060049081015460ff16908111156103cd57634e487b7160e01b600052602160045260246000fd5b146103ea5760405162461bcd60e51b815260040161034b90611634565b63ffffffff8116600090815260016020819052604080832060048101805460ff1916841790559051600392610420920190611430565b908152604051908190036020018120805492151560ff19909316929092179091557f1b80b1a6730e406ef8160306d3b725b5e24aa548876b2d6f00658f59bc79698f9061046e90839061179d565b60405180910390a161047e61114e565b50565b60405163c395fcb360e01b81526001600160a01b037f0000000000000000000000000000000000000000000000000000000000000000169063c395fcb3906104cd9033906004016114cb565b60206040518083038186803b1580156104e557600080fd5b505afa1580156104f9573d6000803e3d6000fd5b505050506040513d601f19601f8201168201806040525081019061051d91906112df565b6105395760405162461bcd60e51b815260040161034b906116f8565b610541611124565b600060015b60045463ffffffff90811690821610156105d65763ffffffff81166000908152600160205260409020600360048083015460ff169081111561059857634e487b7160e01b600052602160045260246000fd5b146105a357506105c6565b60038101546105b2908461185d565b6004918201805460ff191690921790915591505b6105cf81611923565b9050610546565b50604051339082156108fc029083906000818181858888f19350505050158015610604573d6000803e3d6000fd5b507f28bbfa84822da8350f42704e732639c053ff055b08c009afabc33327ef16496a3360405161063491906114cb565b60405180910390a15061064561114e565b565b61064f611124565b336000908152600260205260409020546106685761083c565b336000908152600260209081526040808320805482518185028101850190935280835291929091908301828280156106eb57602002820191906000526020600020906000905b82829054906101000a900463ffffffff1663ffffffff16815260200190600401906020826003010492830192600103820291508084116106ae5790505b50505050509050600080600090505b82518110156107d35760006001600085848151811061072957634e487b7160e01b600052603260045260246000fd5b602002602001015163ffffffff1663ffffffff16815260200190815260200160002090506001600481111561076e57634e487b7160e01b600052602160045260246000fd5b60048083015460ff169081111561079557634e487b7160e01b600052602160045260246000fd5b146107a057506107c3565b60038101546107af908461185d565b600491909101805460ff1916600217905591505b6107cc81611908565b90506106fa565b50604051339082156108fc029083906000818181858888f19350505050158015610801573d6000803e3d6000fd5b507fc6050095029b05868634d497408822da7c6fadcbdfbf6a65d7e50e9eaaa812273360405161083191906114cb565b60405180910390a150505b61064561114e565b61084c611124565b6000341161086c5760405162461bcd60e51b815260040161034b906115c6565b815161088a5760405162461bcd60e51b815260040161034b90611664565b80516108a85760405162461bcd60e51b815260040161034b906115fd565b6003826040516108b89190611414565b9081526040519081900360200190205460ff16156108e85760405162461bcd60e51b815260040161034b90611766565b60045463ffffffff166000818152600160208181526040909220805463ffffffff1916909317835584516109229291840191860190611155565b506002810180546001600160a01b0319163317905534600382015581516109529060058301906020850190611155565b5033600090815260026020908152604080832060048054825460018181018555938752949095206008850401805460079095169091026101000a63ffffffff958616810295021990931693909317909155516003906109b2908690611414565b908152604051908190036020019020805491151560ff1990921691909117905560048054600191906000906109ee90849063ffffffff16611875565b82546101009290920a63ffffffff81810219909316918316021790915582546040513393507fbdd4416d969428663eebb5f802a457cb44371d9c9d18d6db685a39f5c86544c192610a4692169087903490889061180f565b60405180910390a250610a5761114e565b5050565b63ffffffff8116600090815260016020526040812060030154610a905760405162461bcd60e51b815260040161034b906116c1565b5063ffffffff1660009081526001602052604090206004015460ff1690565b60405163c395fcb360e01b81526001600160a01b037f0000000000000000000000000000000000000000000000000000000000000000169063c395fcb390610afb9033906004016114cb565b60206040518083038186803b158015610b1357600080fd5b505afa158015610b27573d6000803e3d6000fd5b505050506040513d601f19601f82011682018060405250810190610b4b91906112df565b610b675760405162461bcd60e51b815260040161034b906116f8565b610b6f611124565b63ffffffff8116600090815260016020526040902060030154610ba45760405162461bcd60e51b815260040161034b906116c1565b63ffffffff8116600090815260016020526040812060049081015460ff1690811115610be057634e487b7160e01b600052602160045260246000fd5b14610bfd5760405162461bcd60e51b815260040161034b90611694565b63ffffffff811660009081526001602052604090819020600401805460ff19166003179055517f8137c252f2c563251ecebdfee231abbd5e6b430edcf4a3fe926ea16ffe416a809061046e90839061179d565b805160208183018101805160038252928201919093012091525460ff1681565b336000908152600260209081526040808320805482518185028101850190935280835260609493830182828015610cf257602002820191906000526020600020906000905b82829054906101000a900463ffffffff1663ffffffff1681526020019060040190602082600301049283019260010382029150808411610cb55790505b505050505090506000815167ffffffffffffffff811115610d2357634e487b7160e01b600052604160045260246000fd5b604051908082528060200260200182016040528015610d5c57816020015b610d496111d9565b815260200190600190039081610d415790505b50905060005b8251811015610fae5760016000848381518110610d8f57634e487b7160e01b600052603260045260246000fd5b602002602001015163ffffffff1663ffffffff1681526020019081526020016000206040518060c00160405290816000820160009054906101000a900463ffffffff1663ffffffff1663ffffffff168152602001600182018054610df2906118cd565b80601f0160208091040260200160405190810160405280929190818152602001828054610e1e906118cd565b8015610e6b5780601f10610e4057610100808354040283529160200191610e6b565b820191906000526020600020905b815481529060010190602001808311610e4e57829003601f168201915b505050918352505060028201546001600160a01b031660208201526003820154604082015260048083015460609092019160ff1690811115610ebd57634e487b7160e01b600052602160045260246000fd5b6004811115610edc57634e487b7160e01b600052602160045260246000fd5b8152602001600582018054610ef0906118cd565b80601f0160208091040260200160405190810160405280929190818152602001828054610f1c906118cd565b8015610f695780601f10610f3e57610100808354040283529160200191610f69565b820191906000526020600020905b815481529060010190602001808311610f4c57829003601f168201915b505050505081525050828281518110610f9257634e487b7160e01b600052603260045260246000fd5b602002602001018190525080610fa790611908565b9050610d62565b5091505090565b60016020819052600091825260409091208054918101805463ffffffff90931692610fdf906118cd565b80601f016020809104026020016040519081016040528092919081815260200182805461100b906118cd565b80156110585780601f1061102d57610100808354040283529160200191611058565b820191906000526020600020905b81548152906001019060200180831161103b57829003601f168201915b50505060028401546003850154600486015460058701805496976001600160a01b039094169692955060ff909116935090611092906118cd565b80601f01602080910402602001604051908101604052809291908181526020018280546110be906118cd565b801561110b5780601f106110e05761010080835404028352916020019161110b565b820191906000526020600020905b8154815290600101906020018083116110ee57829003601f168201915b5050505050905086565b6001600160a01b03163b151590565b600260005414156111475760405162461bcd60e51b815260040161034b9061172f565b6002600055565b6001600055565b828054611161906118cd565b90600052602060002090601f01602090048101928261118357600085556111c9565b82601f1061119c57805160ff19168380011785556111c9565b828001600101855582156111c9579182015b828111156111c95782518255916020019190600101906111ae565b506111d592915061120d565b5090565b6040805160c0810182526000808252606060208301819052928201819052828201819052608082015260a081019190915290565b5b808211156111d5576000815560010161120e565b600082601f830112611232578081fd5b813567ffffffffffffffff8082111561124d5761124d61195d565b604051601f8301601f19908116603f011681019082821181831017156112755761127561195d565b8160405283815286602085880101111561128d578485fd5b8360208701602083013792830160200193909352509392505050565b600080604083850312156112bb578182fd5b82356001600160a01b03811681146112d1578283fd5b946020939093013593505050565b6000602082840312156112f0578081fd5b815180151581146112ff578182fd5b9392505050565b600060208284031215611317578081fd5b813567ffffffffffffffff81111561132d578182fd5b61133984828501611222565b949350505050565b60008060408385031215611353578182fd5b823567ffffffffffffffff8082111561136a578384fd5b61137686838701611222565b9350602085013591508082111561138b578283fd5b5061139885828601611222565b9150509250929050565b6000602082840312156113b3578081fd5b813563ffffffff811681146112ff578182fd5b600081518084526113de81602086016020860161189d565b601f01601f19169290920160200192915050565b6005811061141057634e487b7160e01b600052602160045260246000fd5b9052565b6000825161142681846020870161189d565b9190910192915050565b815460009081906002810460018083168061144c57607f831692505b602080841082141561146c57634e487b7160e01b87526022600452602487fd5b8180156114805760018114611491576114bd565b60ff198616895284890196506114bd565b61149a8a611851565b885b868110156114b55781548b82015290850190830161149c565b505084890196505b509498975050505050505050565b6001600160a01b0391909116815260200190565b60208082528251828201819052600091906040908185019080840286018301878501865b8381101561159957603f19898403018552815160c063ffffffff825116855288820151818a870152611537828701826113c6565b838a01516001600160a01b0316878b0152606080850151908801526080808501519193509150611569828801826113f2565b505060a0808301519250858203818701525061158581836113c6565b968901969450505090860190600101611503565b509098975050505050505050565b901515815260200190565b602081016115c082846113f2565b92915050565b60208082526018908201527f416d6f756e74206d75737420626520706f736974697665210000000000000000604082015260600190565b6020808252601d908201527f4375646f73416464726573732063616e6e6f7420626520656d70747921000000604082015260600190565b6020808252601690820152755061796d656e74206973206e6f74206c6f636b65642160501b604082015260600190565b6020808252601690820152754e667449642063616e6e6f7420626520656d7074792160501b604082015260600190565b6020808252601390820152725061796d656e74206e6f74206c6f636b65642160681b604082015260600190565b60208082526017908201527f4e6f6e206578697374696e67207061796d656e74496421000000000000000000604082015260600190565b6020808252601a908201527f526563697069656e74206973206e6f7420616e2061646d696e21000000000000604082015260600190565b6020808252601f908201527f5265656e7472616e637947756172643a207265656e7472616e742063616c6c00604082015260600190565b60208082526018908201527f4e66744964206d696e746564206f722070656e64696e67210000000000000000604082015260600190565b63ffffffff91909116815260200190565b600063ffffffff8816825260c060208301526117cd60c08301886113c6565b6001600160a01b0387166040840152606083018690526117f060808401866113f2565b82810360a084015261180281856113c6565b9998505050505050505050565b600063ffffffff861682526080602083015261182e60808301866113c6565b846040840152828103606084015261184681856113c6565b979650505050505050565b60009081526020902090565b6000821982111561187057611870611947565b500190565b600063ffffffff80831681851680830382111561189457611894611947565b01949350505050565b60005b838110156118b85781810151838201526020016118a0565b838111156118c7576000848401525b50505050565b6002810460018216806118e157607f821691505b6020821081141561190257634e487b7160e01b600052602260045260246000fd5b50919050565b600060001982141561191c5761191c611947565b5060010190565b600063ffffffff8083168181141561193d5761193d611947565b6001019392505050565b634e487b7160e01b600052601160045260246000fd5b634e487b7160e01b600052604160045260246000fdfea26469706673582212205527e86b98a444922724a0a3d1b890714a016f07803607dd0c3cd9b889d862d364736f6c63430008010033",
  "linkReferences": {},
  "deployedLinkReferences": {}
}