{
  "_format": "hh-sol-artifact-1",
  "contractName": "CudosAccessControls",
  "sourceName": "contracts/CudosAccessControls.sol",
  "abi": [
    {
      "inputs": [],
      "stateMutability": "nonpayable",
      "type": "constructor"
    },
    {
      "anonymous": false,
      "inputs": [
        {
          "indexed": true,
          "internalType": "address",
          "name": "beneficiary",
          "type": "address"
        },
        {
          "indexed": true,
          "internalType": "address",
          "name": "caller",
          "type": "address"
        }
      ],
      "name": "AdminRoleGranted",
      "type": "event"
    },
    {
      "anonymous": false,
      "inputs": [
        {
          "indexed": true,
          "internalType": "address",
          "name": "beneficiary",
          "type": "address"
        },
        {
          "indexed": true,
          "internalType": "address",
          "name": "caller",
          "type": "address"
        }
      ],
      "name": "AdminRoleRemoved",
      "type": "event"
    },
    {
      "anonymous": false,
      "inputs": [
        {
          "indexed": true,
          "internalType": "bytes32",
          "name": "role",
          "type": "bytes32"
        },
        {
          "indexed": true,
          "internalType": "bytes32",
          "name": "previousAdminRole",
          "type": "bytes32"
        },
        {
          "indexed": true,
          "internalType": "bytes32",
          "name": "newAdminRole",
          "type": "bytes32"
        }
      ],
      "name": "RoleAdminChanged",
      "type": "event"
    },
    {
      "anonymous": false,
      "inputs": [
        {
          "indexed": true,
          "internalType": "bytes32",
          "name": "role",
          "type": "bytes32"
        },
        {
          "indexed": true,
          "internalType": "address",
          "name": "account",
          "type": "address"
        },
        {
          "indexed": true,
          "internalType": "address",
          "name": "sender",
          "type": "address"
        }
      ],
      "name": "RoleGranted",
      "type": "event"
    },
    {
      "anonymous": false,
      "inputs": [
        {
          "indexed": true,
          "internalType": "bytes32",
          "name": "role",
          "type": "bytes32"
        },
        {
          "indexed": true,
          "internalType": "address",
          "name": "account",
          "type": "address"
        },
        {
          "indexed": true,
          "internalType": "address",
          "name": "sender",
          "type": "address"
        }
      ],
      "name": "RoleRevoked",
      "type": "event"
    },
    {
      "anonymous": false,
      "inputs": [
        {
          "indexed": true,
          "internalType": "address",
          "name": "beneficiary",
          "type": "address"
        },
        {
          "indexed": true,
          "internalType": "address",
          "name": "caller",
          "type": "address"
        }
      ],
      "name": "SmartContractRoleGranted",
      "type": "event"
    },
    {
      "anonymous": false,
      "inputs": [
        {
          "indexed": true,
          "internalType": "address",
          "name": "beneficiary",
          "type": "address"
        },
        {
          "indexed": true,
          "internalType": "address",
          "name": "caller",
          "type": "address"
        }
      ],
      "name": "SmartContractRoleRemoved",
      "type": "event"
    },
    {
      "anonymous": false,
      "inputs": [
        {
          "indexed": true,
          "internalType": "address",
          "name": "beneficiary",
          "type": "address"
        },
        {
          "indexed": true,
          "internalType": "address",
          "name": "caller",
          "type": "address"
        }
      ],
      "name": "WhitelistRoleGranted",
      "type": "event"
    },
    {
      "anonymous": false,
      "inputs": [
        {
          "indexed": true,
          "internalType": "address",
          "name": "beneficiary",
          "type": "address"
        },
        {
          "indexed": true,
          "internalType": "address",
          "name": "caller",
          "type": "address"
        }
      ],
      "name": "WhitelistRoleRemoved",
      "type": "event"
    },
    {
      "inputs": [],
      "name": "DEFAULT_ADMIN_ROLE",
      "outputs": [
        {
          "internalType": "bytes32",
          "name": "",
          "type": "bytes32"
        }
      ],
      "stateMutability": "view",
      "type": "function"
    },
    {
      "inputs": [],
      "name": "SMART_CONTRACT_ROLE",
      "outputs": [
        {
          "internalType": "bytes32",
          "name": "",
          "type": "bytes32"
        }
      ],
      "stateMutability": "view",
      "type": "function"
    },
    {
      "inputs": [],
      "name": "WHITELISTED_ROLE",
      "outputs": [
        {
          "internalType": "bytes32",
          "name": "",
          "type": "bytes32"
        }
      ],
      "stateMutability": "view",
      "type": "function"
    },
    {
      "inputs": [
        {
          "internalType": "address",
          "name": "_address",
          "type": "address"
        }
      ],
      "name": "addAdminRole",
      "outputs": [],
      "stateMutability": "nonpayable",
      "type": "function"
    },
    {
      "inputs": [
        {
          "internalType": "address",
          "name": "_address",
          "type": "address"
        }
      ],
      "name": "addSmartContractRole",
      "outputs": [],
      "stateMutability": "nonpayable",
      "type": "function"
    },
    {
      "inputs": [
        {
          "internalType": "address",
          "name": "_address",
          "type": "address"
        }
      ],
      "name": "addWhitelistRole",
      "outputs": [],
      "stateMutability": "nonpayable",
      "type": "function"
    },
    {
      "inputs": [
        {
          "internalType": "bytes32",
          "name": "role",
          "type": "bytes32"
        }
      ],
      "name": "getRoleAdmin",
      "outputs": [
        {
          "internalType": "bytes32",
          "name": "",
          "type": "bytes32"
        }
      ],
      "stateMutability": "view",
      "type": "function"
    },
    {
      "inputs": [
        {
          "internalType": "bytes32",
          "name": "role",
          "type": "bytes32"
        },
        {
          "internalType": "address",
          "name": "account",
          "type": "address"
        }
      ],
      "name": "grantRole",
      "outputs": [],
      "stateMutability": "nonpayable",
      "type": "function"
    },
    {
      "inputs": [
        {
          "internalType": "address",
          "name": "_address",
          "type": "address"
        }
      ],
      "name": "hasAdminRole",
      "outputs": [
        {
          "internalType": "bool",
          "name": "",
          "type": "bool"
        }
      ],
      "stateMutability": "view",
      "type": "function"
    },
    {
      "inputs": [
        {
          "internalType": "bytes32",
          "name": "role",
          "type": "bytes32"
        },
        {
          "internalType": "address",
          "name": "account",
          "type": "address"
        }
      ],
      "name": "hasRole",
      "outputs": [
        {
          "internalType": "bool",
          "name": "",
          "type": "bool"
        }
      ],
      "stateMutability": "view",
      "type": "function"
    },
    {
      "inputs": [
        {
          "internalType": "address",
          "name": "_address",
          "type": "address"
        }
      ],
      "name": "hasSmartContractRole",
      "outputs": [
        {
          "internalType": "bool",
          "name": "",
          "type": "bool"
        }
      ],
      "stateMutability": "view",
      "type": "function"
    },
    {
      "inputs": [
        {
          "internalType": "address",
          "name": "_address",
          "type": "address"
        }
      ],
      "name": "hasWhitelistRole",
      "outputs": [
        {
          "internalType": "bool",
          "name": "",
          "type": "bool"
        }
      ],
      "stateMutability": "view",
      "type": "function"
    },
    {
      "inputs": [
        {
          "internalType": "address",
          "name": "_address",
          "type": "address"
        }
      ],
      "name": "removeAdminRole",
      "outputs": [],
      "stateMutability": "nonpayable",
      "type": "function"
    },
    {
      "inputs": [
        {
          "internalType": "address",
          "name": "_address",
          "type": "address"
        }
      ],
      "name": "removeSmartContractRole",
      "outputs": [],
      "stateMutability": "nonpayable",
      "type": "function"
    },
    {
      "inputs": [
        {
          "internalType": "address",
          "name": "_address",
          "type": "address"
        }
      ],
      "name": "removeWhitelistRole",
      "outputs": [],
      "stateMutability": "nonpayable",
      "type": "function"
    },
    {
      "inputs": [
        {
          "internalType": "bytes32",
          "name": "role",
          "type": "bytes32"
        },
        {
          "internalType": "address",
          "name": "account",
          "type": "address"
        }
      ],
      "name": "renounceRole",
      "outputs": [],
      "stateMutability": "nonpayable",
      "type": "function"
    },
    {
      "inputs": [
        {
          "internalType": "bytes32",
          "name": "role",
          "type": "bytes32"
        },
        {
          "internalType": "address",
          "name": "account",
          "type": "address"
        }
      ],
      "name": "revokeRole",
      "outputs": [],
      "stateMutability": "nonpayable",
      "type": "function"
    },
    {
      "inputs": [
        {
          "internalType": "bytes4",
          "name": "interfaceId",
          "type": "bytes4"
        }
      ],
      "name": "supportsInterface",
      "outputs": [
        {
          "internalType": "bool",
          "name": "",
          "type": "bool"
        }
      ],
      "stateMutability": "view",
      "type": "function"
    }
  ],
  "bytecode": "0x608060405234801561001057600080fd5b50610023600061001e610028565b61002c565b6100e8565b3390565b610036828261003a565b5050565b61004482826100bf565b610036576000828152602081815260408083206001600160a01b03851684529091529020805460ff1916600117905561007b610028565b6001600160a01b0316816001600160a01b0316837f2f8788117e7eff1d82e926ec794901d17c78024a50270940304540a733656f0d60405160405180910390a45050565b6000918252602082815260408084206001600160a01b0393909316845291905290205460ff1690565b610d96806100f76000396000f3fe608060405234801561001057600080fd5b50600436106101165760003560e01c80637a3226ec116100a2578063a217fddf11610071578063a217fddf14610221578063c395fcb314610229578063d547741f1461023c578063dccfe3101461024f578063e12d86471461026257610116565b80637a3226ec146101eb578063857d2608146101f35780638a845fc0146101fb57806391d148541461020e57610116565b80632f2ff15d116100e95780632f2ff15d1461018a57806336568abe1461019f5780633f16431a146101b25780636595171c146101c55780636b969171146101d857610116565b806301ffc9a71461011b578063113b0ab214610144578063248a9ca3146101575780632da7952f14610177575b600080fd5b61012e610129366004610ad8565b610275565b60405161013b9190610b75565b60405180910390f35b61012e610152366004610a7b565b6102a2565b61016a610165366004610a95565b6102bc565b60405161013b9190610b80565b61012e610185366004610a7b565b6102d1565b61019d610198366004610aad565b6102eb565b005b61019d6101ad366004610aad565b61030c565b61019d6101c0366004610a7b565b61035b565b61019d6101d3366004610a7b565b6103e6565b61019d6101e6366004610a7b565b610464565b61016a6104ef565b61016a610501565b61019d610209366004610a7b565b610513565b61012e61021c366004610aad565b61059e565b61016a6105c7565b61012e610237366004610a7b565b6105cc565b61019d61024a366004610aad565b6105d8565b61019d61025d366004610a7b565b6105f4565b61019d610270366004610a7b565b610672565b60006001600160e01b03198216637965db0b60e01b148061029a575061029a826106fd565b90505b919050565b600061029a600080516020610d218339815191528361059e565b60009081526020819052604090206001015490565b600061029a600080516020610d418339815191528361059e565b6102f4826102bc565b6102fd81610716565b610307838361072a565b505050565b6103146107af565b6001600160a01b0316816001600160a01b03161461034d5760405162461bcd60e51b815260040161034490610c3d565b60405180910390fd5b61035782826107b3565b5050565b610368600061021c6107af565b6103845760405162461bcd60e51b815260040161034490610bf1565b61039c600080516020610d2183398151915282610836565b6103a46107af565b6001600160a01b0316816001600160a01b03167f1d5f9ec24c6f91be922ea13ceaad919ad6554a41b5c26087f96289a9baf98ad260405160405180910390a350565b6103f3600061021c6107af565b61040f5760405162461bcd60e51b815260040161034490610bf1565b61041a600082610836565b6104226107af565b6001600160a01b0316816001600160a01b03167f2570ac42fd8b322dc453ada624dc2ed0e9bdd67f16f201a25bbd30468f2aa18760405160405180910390a350565b610471600061021c6107af565b61048d5760405162461bcd60e51b815260040161034490610bf1565b6104a5600080516020610d4183398151915282610836565b6104ad6107af565b6001600160a01b0316816001600160a01b03167f8ae27309b6f5c359f35ab839030b8f4fbbc5653014ccb7ebe7a03dd0ccf590af60405160405180910390a350565b600080516020610d4183398151915281565b600080516020610d2183398151915281565b610520600061021c6107af565b61053c5760405162461bcd60e51b815260040161034490610bf1565b610554600080516020610d21833981519152826105d8565b61055c6107af565b6001600160a01b0316816001600160a01b03167fe5f1aa9e528307345194b88b24a32401c13926e0823060f1049d9b26c0bb62b260405160405180910390a350565b6000918252602082815260408084206001600160a01b0393909316845291905290205460ff1690565b600081565b600061029a818361059e565b6105e1826102bc565b6105ea81610716565b61030783836107b3565b610601600061021c6107af565b61061d5760405162461bcd60e51b815260040161034490610bf1565b6106286000826105d8565b6106306107af565b6001600160a01b0316816001600160a01b03167f21ba1239795d4e22874e3dc55f0a9d7b65bfb23069d32965d7c23be9524ccf9560405160405180910390a350565b61067f600061021c6107af565b61069b5760405162461bcd60e51b815260040161034490610bf1565b6106b3600080516020610d41833981519152826105d8565b6106bb6107af565b6001600160a01b0316816001600160a01b03167f5044b7ccbb24783d3ce8215b2e2b51f62c06e9d7706ce98b8a4ed550ceae891b60405160405180910390a350565b6001600160e01b031981166301ffc9a760e01b14919050565b610727816107226107af565b610840565b50565b610734828261059e565b610357576000828152602081815260408083206001600160a01b03851684529091529020805460ff1916600117905561076b6107af565b6001600160a01b0316816001600160a01b0316837f2f8788117e7eff1d82e926ec794901d17c78024a50270940304540a733656f0d60405160405180910390a45050565b3390565b6107bd828261059e565b15610357576000828152602081815260408083206001600160a01b03851684529091529020805460ff191690556107f26107af565b6001600160a01b0316816001600160a01b0316837ff6391f5c32d9c69d2a47ea670b442974b53935d1edc7fd64eb21e047a839171b60405160405180910390a45050565b610357828261072a565b61084a828261059e565b6103575761085781610899565b6108628360206108ab565b604051602001610873929190610b00565b60408051601f198184030181529082905262461bcd60e51b825261034491600401610b89565b606061029a6001600160a01b03831660145b606060006108ba836002610ca4565b6108c5906002610c8c565b67ffffffffffffffff8111156108eb57634e487b7160e01b600052604160045260246000fd5b6040519080825280601f01601f191660200182016040528015610915576020820181803683370190505b509050600360fc1b8160008151811061093e57634e487b7160e01b600052603260045260246000fd5b60200101906001600160f81b031916908160001a905350600f60fb1b8160018151811061097b57634e487b7160e01b600052603260045260246000fd5b60200101906001600160f81b031916908160001a905350600061099f846002610ca4565b6109aa906001610c8c565b90505b6001811115610a3e576f181899199a1a9b1b9c1cb0b131b232b360811b85600f16601081106109ec57634e487b7160e01b600052603260045260246000fd5b1a60f81b828281518110610a1057634e487b7160e01b600052603260045260246000fd5b60200101906001600160f81b031916908160001a90535060049490941c93610a3781610cf3565b90506109ad565b508315610a5d5760405162461bcd60e51b815260040161034490610bbc565b9392505050565b80356001600160a01b038116811461029d57600080fd5b600060208284031215610a8c578081fd5b610a5d82610a64565b600060208284031215610aa6578081fd5b5035919050565b60008060408385031215610abf578081fd5b82359150610acf60208401610a64565b90509250929050565b600060208284031215610ae9578081fd5b81356001600160e01b031981168114610a5d578182fd5b60007f416363657373436f6e74726f6c3a206163636f756e742000000000000000000082528351610b38816017850160208801610cc3565b7001034b99036b4b9b9b4b733903937b6329607d1b6017918401918201528351610b69816028840160208801610cc3565b01602801949350505050565b901515815260200190565b90815260200190565b6000602082528251806020840152610ba8816040850160208701610cc3565b601f01601f19169190910160400192915050565b6020808252818101527f537472696e67733a20686578206c656e67746820696e73756666696369656e74604082015260600190565b6020808252602c908201527f4375646f73416363657373436f6e74726f6c733a2073656e646572206d75737460408201526b1031329030b71030b236b4b760a11b606082015260800190565b6020808252602f908201527f416363657373436f6e74726f6c3a2063616e206f6e6c792072656e6f756e636560408201526e103937b632b9903337b91039b2b63360891b606082015260800190565b60008219821115610c9f57610c9f610d0a565b500190565b6000816000190483118215151615610cbe57610cbe610d0a565b500290565b60005b83811015610cde578181015183820152602001610cc6565b83811115610ced576000848401525b50505050565b600081610d0257610d02610d0a565b506000190190565b634e487b7160e01b600052601160045260246000fdfe9d49f397ae9ef1a834b569acb967799a367061e305932181a44f5773da873bfd8429d542926e6695b59ac6fbdcd9b37e8b1aeb757afab06ab60b1bb5878c3b49a26469706673582212206311a6c25ea948a2de0b3dccb460e6b0fe16c954978598ad3199c23b716b24a264736f6c63430008010033",
  "linkReferences": {},
  "deployedLinkReferences": {}
}